{
  "contractName": "Validator",
  "abi": [
    {
      "constant": true,
      "inputs": [
        {
          "internalType": "bytes32",
          "name": "msgHash",
          "type": "bytes32"
        },
        {
          "internalType": "uint8",
          "name": "v",
          "type": "uint8"
        },
        {
          "internalType": "bytes32",
          "name": "r",
          "type": "bytes32"
        },
        {
          "internalType": "bytes32",
          "name": "s",
          "type": "bytes32"
        }
      ],
      "name": "recoverAddress",
      "outputs": [
        {
          "internalType": "address",
          "name": "",
          "type": "address"
        }
      ],
      "payable": false,
      "stateMutability": "pure",
      "type": "function"
    },
    {
      "constant": true,
      "inputs": [
        {
          "internalType": "address",
          "name": "addr",
          "type": "address"
        },
        {
          "internalType": "bytes32",
          "name": "msgHash",
          "type": "bytes32"
        },
        {
          "internalType": "uint8",
          "name": "v",
          "type": "uint8"
        },
        {
          "internalType": "bytes32",
          "name": "r",
          "type": "bytes32"
        },
        {
          "internalType": "bytes32",
          "name": "s",
          "type": "bytes32"
        }
      ],
      "name": "verify",
      "outputs": [
        {
          "internalType": "bool",
          "name": "",
          "type": "bool"
        }
      ],
      "payable": false,
      "stateMutability": "pure",
      "type": "function"
    }
  ],
  "bytecode": "0x608060405234801561001057600080fd5b506102fa806100206000396000f3fe608060405234801561001057600080fd5b50600436106100365760003560e01c8063506535f31461003b5780638428cf83146100c2575b600080fd5b6100a8600480360360a081101561005157600080fd5b81019080803573ffffffffffffffffffffffffffffffffffffffff16906020019092919080359060200190929190803560ff1690602001909291908035906020019092919080359060200190929190505050610151565b604051808215151515815260200191505060405180910390f35b61010f600480360360808110156100d857600080fd5b8101908080359060200190929190803560ff1690602001909291908035906020019092919080359060200190929190505050610198565b604051808273ffffffffffffffffffffffffffffffffffffffff1673ffffffffffffffffffffffffffffffffffffffff16815260200191505060405180910390f35b600061015f85858585610198565b73ffffffffffffffffffffffffffffffffffffffff168673ffffffffffffffffffffffffffffffffffffffff1614905095945050505050565b600060606040518060400160405280601c81526020017f19457468657265756d205369676e6564204d6573736167653a0a3332000000008152509050600081876040516020018083805190602001908083835b6020831061020e57805182526020820191506020810190506020830392506101eb565b6001836020036101000a0380198251168184511680821785525050505050509050018281526020019250505060405160208183030381529060405280519060200120905060018187878760405160008152602001604052604051808581526020018460ff1660ff1681526020018381526020018281526020019450505050506020604051602081039080840390855afa1580156102af573d6000803e3d6000fd5b505050602060405103519250505094935050505056fea265627a7a72315820451e92b245e59946671e3e5aededf58b2b5d4e2311da18b330c65b8a3ccb595564736f6c63430005100032",
  "source": "// SPDX-License-Identifier: MIT\npragma solidity >=0.4.22 <0.9.0;\n\ncontract Validator {\n  function recoverAddress(bytes32 msgHash, uint8 v, bytes32 r, bytes32 s) public pure returns(address){\n    bytes memory prefix = \"\\x19Ethereum Signed Message:\\n32\";\n    bytes32 prefixedHash = keccak256(abi.encodePacked(prefix, msgHash));\n      return ecrecover(prefixedHash, v, r, s);\n  }\n  function verify(address addr, bytes32 msgHash, uint8 v, bytes32 r, bytes32 s) public pure returns(bool) {\n      return addr == recoverAddress(msgHash, v, r, s);\n  }\n}\n",
  "sourcePath": "/Users/gipark/study/test/test/contracts/Validator.sol",
  "compiler": {
    "name": "solc",
    "version": "0.5.16+commit.9c3226ce.Emscripten.clang"
  },
  "schemaVersion": "3.4.4",
  "updatedAt": "2022-06-14T05:57:53.989Z",
  "networkType": "ethereum",
  "devdoc": {
    "methods": {}
  },
  "userdoc": {
    "methods": {}
  }
}